{
  "address": "0x57E3c1bedeFF648b60Dec637800a656f4dC73F56",
  "abi": [
    {
      "inputs": [
        {
          "internalType": "address",
          "name": "_vrfCoordinator",
          "type": "address"
        },
        {
          "internalType": "bytes32",
          "name": "_keyHash",
          "type": "bytes32"
        },
        {
          "internalType": "uint64",
          "name": "_subscriptionId",
          "type": "uint64"
        },
        {
          "internalType": "uint32",
          "name": "_callbackGasLimit",
          "type": "uint32"
        },
        {
          "internalType": "uint16",
          "name": "_requestConfirmations",
          "type": "uint16"
        }
      ],
      "stateMutability": "nonpayable",
      "type": "constructor"
    },
    {
      "inputs": [
        {
          "internalType": "address",
          "name": "have",
          "type": "address"
        },
        {
          "internalType": "address",
          "name": "want",
          "type": "address"
        }
      ],
      "name": "OnlyCoordinatorCanFulfill",
      "type": "error"
    },
    {
      "anonymous": false,
      "inputs": [
        {
          "indexed": true,
          "internalType": "address",
          "name": "owner",
          "type": "address"
        },
        {
          "indexed": true,
          "internalType": "address",
          "name": "approved",
          "type": "address"
        },
        {
          "indexed": true,
          "internalType": "uint256",
          "name": "tokenId",
          "type": "uint256"
        }
      ],
      "name": "Approval",
      "type": "event"
    },
    {
      "anonymous": false,
      "inputs": [
        {
          "indexed": true,
          "internalType": "address",
          "name": "owner",
          "type": "address"
        },
        {
          "indexed": true,
          "internalType": "address",
          "name": "operator",
          "type": "address"
        },
        {
          "indexed": false,
          "internalType": "bool",
          "name": "approved",
          "type": "bool"
        }
      ],
      "name": "ApprovalForAll",
      "type": "event"
    },
    {
      "anonymous": false,
      "inputs": [
        {
          "indexed": true,
          "internalType": "uint256",
          "name": "requestId",
          "type": "uint256"
        }
      ],
      "name": "RandomnessRequested",
      "type": "event"
    },
    {
      "anonymous": false,
      "inputs": [
        {
          "indexed": true,
          "internalType": "address",
          "name": "from",
          "type": "address"
        },
        {
          "indexed": true,
          "internalType": "address",
          "name": "to",
          "type": "address"
        },
        {
          "indexed": true,
          "internalType": "uint256",
          "name": "tokenId",
          "type": "uint256"
        }
      ],
      "name": "Transfer",
      "type": "event"
    },
    {
      "inputs": [
        {
          "internalType": "address",
          "name": "to",
          "type": "address"
        },
        {
          "internalType": "uint256",
          "name": "tokenId",
          "type": "uint256"
        }
      ],
      "name": "approve",
      "outputs": [],
      "stateMutability": "nonpayable",
      "type": "function"
    },
    {
      "inputs": [
        {
          "internalType": "address",
          "name": "owner",
          "type": "address"
        }
      ],
      "name": "balanceOf",
      "outputs": [
        {
          "internalType": "uint256",
          "name": "",
          "type": "uint256"
        }
      ],
      "stateMutability": "view",
      "type": "function"
    },
    {
      "inputs": [
        {
          "internalType": "uint256",
          "name": "tokenId",
          "type": "uint256"
        }
      ],
      "name": "getApproved",
      "outputs": [
        {
          "internalType": "address",
          "name": "",
          "type": "address"
        }
      ],
      "stateMutability": "view",
      "type": "function"
    },
    {
      "inputs": [
        {
          "internalType": "address",
          "name": "owner",
          "type": "address"
        },
        {
          "internalType": "address",
          "name": "operator",
          "type": "address"
        }
      ],
      "name": "isApprovedForAll",
      "outputs": [
        {
          "internalType": "bool",
          "name": "",
          "type": "bool"
        }
      ],
      "stateMutability": "view",
      "type": "function"
    },
    {
      "inputs": [],
      "name": "mint",
      "outputs": [
        {
          "internalType": "uint256",
          "name": "requestId",
          "type": "uint256"
        }
      ],
      "stateMutability": "nonpayable",
      "type": "function"
    },
    {
      "inputs": [],
      "name": "name",
      "outputs": [
        {
          "internalType": "string",
          "name": "",
          "type": "string"
        }
      ],
      "stateMutability": "view",
      "type": "function"
    },
    {
      "inputs": [
        {
          "internalType": "uint256",
          "name": "tokenId",
          "type": "uint256"
        }
      ],
      "name": "ownerOf",
      "outputs": [
        {
          "internalType": "address",
          "name": "",
          "type": "address"
        }
      ],
      "stateMutability": "view",
      "type": "function"
    },
    {
      "inputs": [
        {
          "internalType": "uint256",
          "name": "requestId",
          "type": "uint256"
        },
        {
          "internalType": "uint256[]",
          "name": "randomWords",
          "type": "uint256[]"
        }
      ],
      "name": "rawFulfillRandomWords",
      "outputs": [],
      "stateMutability": "nonpayable",
      "type": "function"
    },
    {
      "inputs": [
        {
          "internalType": "address",
          "name": "from",
          "type": "address"
        },
        {
          "internalType": "address",
          "name": "to",
          "type": "address"
        },
        {
          "internalType": "uint256",
          "name": "tokenId",
          "type": "uint256"
        }
      ],
      "name": "safeTransferFrom",
      "outputs": [],
      "stateMutability": "nonpayable",
      "type": "function"
    },
    {
      "inputs": [
        {
          "internalType": "address",
          "name": "from",
          "type": "address"
        },
        {
          "internalType": "address",
          "name": "to",
          "type": "address"
        },
        {
          "internalType": "uint256",
          "name": "tokenId",
          "type": "uint256"
        },
        {
          "internalType": "bytes",
          "name": "data",
          "type": "bytes"
        }
      ],
      "name": "safeTransferFrom",
      "outputs": [],
      "stateMutability": "nonpayable",
      "type": "function"
    },
    {
      "inputs": [
        {
          "internalType": "address",
          "name": "operator",
          "type": "address"
        },
        {
          "internalType": "bool",
          "name": "approved",
          "type": "bool"
        }
      ],
      "name": "setApprovalForAll",
      "outputs": [],
      "stateMutability": "nonpayable",
      "type": "function"
    },
    {
      "inputs": [
        {
          "internalType": "bytes4",
          "name": "interfaceId",
          "type": "bytes4"
        }
      ],
      "name": "supportsInterface",
      "outputs": [
        {
          "internalType": "bool",
          "name": "",
          "type": "bool"
        }
      ],
      "stateMutability": "view",
      "type": "function"
    },
    {
      "inputs": [],
      "name": "symbol",
      "outputs": [
        {
          "internalType": "string",
          "name": "",
          "type": "string"
        }
      ],
      "stateMutability": "view",
      "type": "function"
    },
    {
      "inputs": [
        {
          "internalType": "uint256",
          "name": "tokenId",
          "type": "uint256"
        }
      ],
      "name": "tokenURI",
      "outputs": [
        {
          "internalType": "string",
          "name": "",
          "type": "string"
        }
      ],
      "stateMutability": "view",
      "type": "function"
    },
    {
      "inputs": [
        {
          "internalType": "address",
          "name": "from",
          "type": "address"
        },
        {
          "internalType": "address",
          "name": "to",
          "type": "address"
        },
        {
          "internalType": "uint256",
          "name": "tokenId",
          "type": "uint256"
        }
      ],
      "name": "transferFrom",
      "outputs": [],
      "stateMutability": "nonpayable",
      "type": "function"
    }
  ],
  "transactionHash": "0x7d09b99f27dd1d86eaea032fabd867cf2b85c66b077f3793dce9f0ace01ba391",
  "args": [
    "0x7a1BaC17Ccc5b313516C5E16fb24f7659aA5ebed",
    "0x4b09e658ed251bcafeebbc69400383d49f344ace09b9576fe248bb02c003fe9f",
    "2700",
    "2500000",
    3
  ],
  "numDeployments": 1,
  "solcInputHash": "91ffde5e1760ab96dd14ba70918f6f2b",
  "bytecode": "0x60046102a081815263f09f988160e01b6102c0526101609081526102e082815263784fcc4160e11b610300526101805261032082815263f09f988d60e01b610340526101a05261036082815263f09f98ad60e01b610380526101c0526103a0828152633c27e62d60e21b6103c0526101e0526103e082815263784fcc4760e11b610400526102005261042082815263f09fa49160e01b610440526102205261046082815263f09fa5b360e01b61048052610240526104a082815263f09f98b160e01b6104c052610260526105206040526104e0918252633c27e66160e21b6105005261028091909152620000f890600890600a620001f2565b503480156200010657600080fd5b50604051620026383803806200263883398101604081905262000129916200035b565b6040805180820182526008815267115b5bda9a53919560c21b602080830191825283518085019094526005845264454d4f4a4960d81b90840152815188939162000177916000919062000256565b5080516200018d90600190602084019062000256565b505050606090811b6001600160601b031990811660805295901b90941660a05260c0928352911b6001600160c01b03191660e09081521b6001600160e01b03191661010052600160e21b6101205260f01b6001600160f01b0319166101405262000430565b82805482825590600052602060002090810192821562000244579160200282015b828111156200024457825180516200023391849160209091019062000256565b509160200191906001019062000213565b5062000252929150620002e1565b5090565b8280546200026490620003f3565b90600052602060002090601f016020900481019282620002885760008555620002d3565b82601f10620002a357805160ff1916838001178555620002d3565b82800160010185558215620002d3579182015b82811115620002d3578251825591602001919060010190620002b6565b506200025292915062000302565b8082111562000252576000620002f8828262000319565b50600101620002e1565b5b8082111562000252576000815560010162000303565b5080546200032790620003f3565b6000825580601f1062000338575050565b601f01602090049060005260206000209081019062000358919062000302565b50565b600080600080600060a086880312156200037457600080fd5b85516001600160a01b03811681146200038c57600080fd5b6020870151604088015191965094506001600160401b0381168114620003b157600080fd5b606087015190935063ffffffff81168114620003cc57600080fd5b608087015190925061ffff81168114620003e557600080fd5b809150509295509295909350565b600181811c908216806200040857607f821691505b602082108114156200042a57634e487b7160e01b600052602260045260246000fd5b50919050565b60805160601c60a05160601c60c05160e05160c01c6101005160e01c6101205160e01c6101405160f01c612194620004a460003960006104f70152600061054b01526000610523015260006104cd0152600061049e01526000610575015260008181610650015261069201526121946000f3fe608060405234801561001057600080fd5b50600436106100f55760003560e01c806342842e0e11610097578063a22cb46511610066578063a22cb465146101f4578063b88d4fde14610207578063c87b56dd1461021a578063e985e9c51461022d57600080fd5b806342842e0e146101b35780636352211e146101c657806370a08231146101d957806395d89b41146101ec57600080fd5b8063095ea7b3116100d3578063095ea7b3146101625780631249c58b146101775780631fe543e31461018d57806323b872dd146101a057600080fd5b806301ffc9a7146100fa57806306fdde0314610122578063081812fc14610137575b600080fd5b61010d6101083660046119d0565b610269565b60405190151581526020015b60405180910390f35b61012a6102bb565b6040516101199190611d9b565b61014a610145366004611a0a565b61034d565b6040516001600160a01b039091168152602001610119565b6101756101703660046119a6565b610374565b005b61017f61048f565b604051908152602001610119565b61017561019b366004611a3c565b610645565b6101756101ae36600461186e565b6106cd565b6101756101c136600461186e565b6106fe565b61014a6101d4366004611a0a565b610719565b61017f6101e7366004611820565b610779565b61012a6107ff565b61017561020236600461196a565b61080e565b6101756102153660046118aa565b610819565b61012a610228366004611a0a565b610851565b61010d61023b36600461183b565b6001600160a01b03918216600090815260056020908152604080832093909416825291909152205460ff1690565b60006001600160e01b031982166380ac58cd60e01b148061029a57506001600160e01b03198216635b5e139f60e01b145b806102b557506301ffc9a760e01b6001600160e01b03198316145b92915050565b6060600080546102ca90611f51565b80601f01602080910402602001604051908101604052809291908181526020018280546102f690611f51565b80156103435780601f1061031857610100808354040283529160200191610343565b820191906000526020600020905b81548152906001019060200180831161032657829003601f168201915b5050505050905090565b600061035882610962565b506000908152600460205260409020546001600160a01b031690565b600061037f82610719565b9050806001600160a01b0316836001600160a01b031614156103f25760405162461bcd60e51b815260206004820152602160248201527f4552433732313a20617070726f76616c20746f2063757272656e74206f776e656044820152603960f91b60648201526084015b60405180910390fd5b336001600160a01b038216148061040e575061040e813361023b565b6104805760405162461bcd60e51b815260206004820152603d60248201527f4552433732313a20617070726f76652063616c6c6572206973206e6f7420746f60448201527f6b656e206f776e6572206f7220617070726f76656420666f7220616c6c00000060648201526084016103e9565b61048a83836109c4565b505050565b6040516305d3b1d360e41b81527f0000000000000000000000000000000000000000000000000000000000000000600482015267ffffffffffffffff7f000000000000000000000000000000000000000000000000000000000000000016602482015261ffff7f000000000000000000000000000000000000000000000000000000000000000016604482015263ffffffff7f0000000000000000000000000000000000000000000000000000000000000000811660648301527f00000000000000000000000000000000000000000000000000000000000000001660848201526000907f00000000000000000000000000000000000000000000000000000000000000006001600160a01b031690635d3b1d309060a401602060405180830381600087803b1580156105c157600080fd5b505af11580156105d5573d6000803e3d6000fd5b505050506040513d601f19601f820116820180604052508101906105f99190611a23565b60008181526009602052604080822080546001600160a01b031916331790555191925082917f9ac10fb18c93d33ad7b0a941897aef048d0f8d30756684e82b4552ba12764d459190a290565b336001600160a01b037f000000000000000000000000000000000000000000000000000000000000000016146106bf5760405163073e64fd60e21b81523360048201526001600160a01b037f00000000000000000000000000000000000000000000000000000000000000001660248201526044016103e9565b6106c98282610a32565b5050565b6106d73382610be1565b6106f35760405162461bcd60e51b81526004016103e990611dae565b61048a838383610c5f565b61048a83838360405180602001604052806000815250610819565b6000818152600260205260408120546001600160a01b0316806102b55760405162461bcd60e51b8152602060048201526018602482015277115490cdcc8c4e881a5b9d985b1a59081d1bdad95b88125160421b60448201526064016103e9565b60006001600160a01b0382166107e35760405162461bcd60e51b815260206004820152602960248201527f4552433732313a2061646472657373207a65726f206973206e6f7420612076616044820152683634b21037bbb732b960b91b60648201526084016103e9565b506001600160a01b031660009081526003602052604090205490565b6060600180546102ca90611f51565b6106c9338383610dd0565b6108233383610be1565b61083f5760405162461bcd60e51b81526004016103e990611dae565b61084b84848484610e9f565b50505050565b606061085c82610962565b6000828152600660205260408120805461087590611f51565b80601f01602080910402602001604051908101604052809291908181526020018280546108a190611f51565b80156108ee5780601f106108c3576101008083540402835291602001916108ee565b820191906000526020600020905b8154815290600101906020018083116108d157829003601f168201915b50505050509050600061090c60408051602081019091526000815290565b905080516000141561091f575092915050565b815115610951578082604051602001610939929190611b21565b60405160208183030381529060405292505050919050565b61095a84610ed2565b949350505050565b6000818152600260205260409020546001600160a01b03166109c15760405162461bcd60e51b8152602060048201526018602482015277115490cdcc8c4e881a5b9d985b1a59081d1bdad95b88125160421b60448201526064016103e9565b50565b600081815260046020526040902080546001600160a01b0319166001600160a01b03841690811790915581906109f982610719565b6001600160a01b03167f8c5be1e5ebec7d5bd14f71427d1e84f3dd0314c0f7b2291e5b200ac8c7c3b92560405160405180910390a45050565b6000610a3d60075490565b9050600060088054905083600081518110610a5a57610a5a611fcc565b6020026020010151610a6c9190611f8c565b610a77906001611ec3565b9050600060088281548110610a8e57610a8e611fcc565b906000526020600020018054610aa390611f51565b80601f0160208091040260200160405190810160405280929190818152602001828054610acf90611f51565b8015610b1c5780601f10610af157610100808354040283529160200191610b1c565b820191906000526020600020905b815481529060010190602001808311610aff57829003601f168201915b505050505090506000610b7e85600181518110610b3b57610b3b611fcc565b602002602001015186600281518110610b5657610b56611fcc565b602002602001015187600381518110610b7157610b71611fcc565b6020026020010151610f46565b90506000610b8c8383610fc0565b90506000610b9a848361102c565b600089815260096020526040902054909150610bbf906001600160a01b03168761108d565b610bc986826110a7565b610bd7600780546001019055565b5050505050505050565b600080610bed83610719565b9050806001600160a01b0316846001600160a01b03161480610c3457506001600160a01b0380821660009081526005602090815260408083209388168352929052205460ff165b8061095a5750836001600160a01b0316610c4d8461034d565b6001600160a01b031614949350505050565b826001600160a01b0316610c7282610719565b6001600160a01b031614610c985760405162461bcd60e51b81526004016103e990611e4d565b6001600160a01b038216610cfa5760405162461bcd60e51b8152602060048201526024808201527f4552433732313a207472616e7366657220746f20746865207a65726f206164646044820152637265737360e01b60648201526084016103e9565b610d078383836001611141565b826001600160a01b0316610d1a82610719565b6001600160a01b031614610d405760405162461bcd60e51b81526004016103e990611e4d565b600081815260046020908152604080832080546001600160a01b03199081169091556001600160a01b0387811680865260038552838620805460001901905590871680865283862080546001019055868652600290945282852080549092168417909155905184937fddf252ad1be2c89b69c2b068fc378daa952ba7f163c4a11628f55a4df523b3ef91a4505050565b816001600160a01b0316836001600160a01b03161415610e325760405162461bcd60e51b815260206004820152601960248201527f4552433732313a20617070726f766520746f2063616c6c65720000000000000060448201526064016103e9565b6001600160a01b03838116600081815260056020908152604080832094871680845294825291829020805460ff191686151590811790915591519182527f17307eab39ab6107e8899845ad3d59bd9653f200f220920489ca2b5937696c31910160405180910390a3505050565b610eaa848484610c5f565b610eb6848484846111c9565b61084b5760405162461bcd60e51b81526004016103e990611dfb565b6060610edd82610962565b6000610ef460408051602081019091526000815290565b90506000815111610f145760405180602001604052806000815250610f3f565b80610f1e846112d6565b604051602001610f2f929190611b21565b6040516020818303038152906040525b9392505050565b60606000610f5661010086611f8c565b90506000610f6661010086611f8c565b90506000610f7661010086611f8c565b9050610f81836112d6565b610f8a836112d6565b610f93836112d6565b604051602001610fa593929190611bbf565b60405160208183030381529060405293505050509392505050565b606060006040518060e0016040528060b9815260200161200f60b9913990506000604051806080016040528060578152602001612108605791399050818482876040516020016110139493929190611b50565b6040516020818303038152906040529250505092915050565b606060006110628461103d85611373565b60405160200161104e929190611c39565b604051602081830303815290604052611373565b9050806040516020016110759190611d1a565b60405160208183030381529060405291505092915050565b6106c98282604051806020016040528060008152506114c7565b6000828152600260205260409020546001600160a01b03166111225760405162461bcd60e51b815260206004820152602e60248201527f45524337323155524953746f726167653a2055524920736574206f66206e6f6e60448201526d32bc34b9ba32b73a103a37b5b2b760911b60648201526084016103e9565b6000828152600660209081526040909120825161048a9284019061176b565b600181111561084b576001600160a01b03841615611187576001600160a01b03841660009081526003602052604081208054839290611181908490611f0e565b90915550505b6001600160a01b0383161561084b576001600160a01b038316600090815260036020526040812080548392906111be908490611ec3565b909155505050505050565b60006001600160a01b0384163b156112cb57604051630a85bd0160e11b81526001600160a01b0385169063150b7a029061120d903390899088908890600401611d5f565b602060405180830381600087803b15801561122757600080fd5b505af1925050508015611257575060408051601f3d908101601f19168201909252611254918101906119ed565b60015b6112b1573d808015611285576040519150601f19603f3d011682016040523d82523d6000602084013e61128a565b606091505b5080516112a95760405162461bcd60e51b81526004016103e990611dfb565b805181602001fd5b6001600160e01b031916630a85bd0160e11b14905061095a565b506001949350505050565b606060006112e3836114fa565b600101905060008167ffffffffffffffff81111561130357611303611fe2565b6040519080825280601f01601f19166020018201604052801561132d576020820181803683370190505b5090508181016020015b600019016f181899199a1a9b1b9c1cb0b131b232b360811b600a86061a8153600a85049450846113665761136b565b611337565b509392505050565b606081516000141561139357505060408051602081019091526000815290565b60006040518060600160405280604081526020016120c860409139905060006003845160026113c29190611ec3565b6113cc9190611edb565b6113d7906004611eef565b67ffffffffffffffff8111156113ef576113ef611fe2565b6040519080825280601f01601f191660200182016040528015611419576020820181803683370190505b509050600182016020820185865187015b80821015611485576003820191508151603f8160121c168501518453600184019350603f81600c1c168501518453600184019350603f8160061c168501518453600184019350603f811685015184535060018301925061142a565b50506003865106600181146114a157600281146114b4576114bc565b603d6001830353603d60028303536114bc565b603d60018303535b509195945050505050565b6114d183836115d2565b6114de60008484846111c9565b61048a5760405162461bcd60e51b81526004016103e990611dfb565b60008072184f03e93ff9f4daa797ed6e38ed64bf6a1f0160401b83106115395772184f03e93ff9f4daa797ed6e38ed64bf6a1f0160401b830492506040015b6d04ee2d6d415b85acef81000000008310611565576d04ee2d6d415b85acef8100000000830492506020015b662386f26fc10000831061158357662386f26fc10000830492506010015b6305f5e100831061159b576305f5e100830492506008015b61271083106115af57612710830492506004015b606483106115c1576064830492506002015b600a83106102b55760010192915050565b6001600160a01b0382166116285760405162461bcd60e51b815260206004820181905260248201527f4552433732313a206d696e7420746f20746865207a65726f206164647265737360448201526064016103e9565b6000818152600260205260409020546001600160a01b03161561168d5760405162461bcd60e51b815260206004820152601c60248201527f4552433732313a20746f6b656e20616c7265616479206d696e7465640000000060448201526064016103e9565b61169b600083836001611141565b6000818152600260205260409020546001600160a01b0316156117005760405162461bcd60e51b815260206004820152601c60248201527f4552433732313a20746f6b656e20616c7265616479206d696e7465640000000060448201526064016103e9565b6001600160a01b038216600081815260036020908152604080832080546001019055848352600290915280822080546001600160a01b0319168417905551839291907fddf252ad1be2c89b69c2b068fc378daa952ba7f163c4a11628f55a4df523b3ef908290a45050565b82805461177790611f51565b90600052602060002090601f01602090048101928261179957600085556117df565b82601f106117b257805160ff19168380011785556117df565b828001600101855582156117df579182015b828111156117df5782518255916020019190600101906117c4565b506117eb9291506117ef565b5090565b5b808211156117eb57600081556001016117f0565b80356001600160a01b038116811461181b57600080fd5b919050565b60006020828403121561183257600080fd5b610f3f82611804565b6000806040838503121561184e57600080fd5b61185783611804565b915061186560208401611804565b90509250929050565b60008060006060848603121561188357600080fd5b61188c84611804565b925061189a60208501611804565b9150604084013590509250925092565b600080600080608085870312156118c057600080fd5b6118c985611804565b935060206118d8818701611804565b935060408601359250606086013567ffffffffffffffff808211156118fc57600080fd5b818801915088601f83011261191057600080fd5b81358181111561192257611922611fe2565b611934601f8201601f19168501611e92565b9150808252898482850101111561194a57600080fd5b808484018584013760008482840101525080935050505092959194509250565b6000806040838503121561197d57600080fd5b61198683611804565b91506020830135801515811461199b57600080fd5b809150509250929050565b600080604083850312156119b957600080fd5b6119c283611804565b946020939093013593505050565b6000602082840312156119e257600080fd5b8135610f3f81611ff8565b6000602082840312156119ff57600080fd5b8151610f3f81611ff8565b600060208284031215611a1c57600080fd5b5035919050565b600060208284031215611a3557600080fd5b5051919050565b60008060408385031215611a4f57600080fd5b8235915060208084013567ffffffffffffffff80821115611a6f57600080fd5b818601915086601f830112611a8357600080fd5b813581811115611a9557611a95611fe2565b8060051b9150611aa6848301611e92565b8181528481019084860184860187018b1015611ac157600080fd5b600095505b83861015611ae4578035835260019590950194918601918601611ac6565b508096505050505050509250929050565b60008151808452611b0d816020860160208601611f25565b601f01601f19169290920160200192915050565b60008351611b33818460208801611f25565b835190830190611b47818360208801611f25565b01949350505050565b60008551611b62818460208a01611f25565b855190830190611b76818360208a01611f25565b8551910190611b89818360208901611f25565b8451910190611b9c818360208801611f25565b6c1e17ba32bc3a1f1e17b9bb339f60991b9101908152600d019695505050505050565b630e4cec4560e31b815260008451611bde816004850160208901611f25565b808301905061016160f51b8060048301528551611c02816006850160208a01611f25565b60069201918201528351611c1d816008840160208801611f25565b61293b60f01b60089290910191820152600a0195945050505050565b693d913730b6b2911d101160b11b81528251600090611c5f81600a850160208801611f25565b7f222c20226465736372697074696f6e223a202252616e646f6d20456d6f6a6920600a918401918201527f4e465420436f6c6c656374696f6e20506f776572656420627920436861696e6c602a8201527f696e6b20565246222c2022696d616765223a2022646174613a696d6167652f73604a8201526d1d99cade1b5b0ed8985cd94d8d0b60921b606a8201528351611cff816078840160208801611f25565b61227d60f01b60789290910191820152607a01949350505050565b7f646174613a6170706c69636174696f6e2f6a736f6e3b6261736536342c000000815260008251611d5281601d850160208701611f25565b91909101601d0192915050565b60006001600160a01b03808716835280861660208401525083604083015260806060830152611d916080830184611af5565b9695505050505050565b602081526000610f3f6020830184611af5565b6020808252602d908201527f4552433732313a2063616c6c6572206973206e6f7420746f6b656e206f776e6560408201526c1c881bdc88185c1c1c9bdd9959609a1b606082015260800190565b60208082526032908201527f4552433732313a207472616e7366657220746f206e6f6e20455243373231526560408201527131b2b4bb32b91034b6b83632b6b2b73a32b960711b606082015260800190565b60208082526025908201527f4552433732313a207472616e736665722066726f6d20696e636f72726563742060408201526437bbb732b960d91b606082015260800190565b604051601f8201601f1916810167ffffffffffffffff81118282101715611ebb57611ebb611fe2565b604052919050565b60008219821115611ed657611ed6611fa0565b500190565b600082611eea57611eea611fb6565b500490565b6000816000190483118215151615611f0957611f09611fa0565b500290565b600082821015611f2057611f20611fa0565b500390565b60005b83811015611f40578181015183820152602001611f28565b8381111561084b5750506000910152565b600181811c90821680611f6557607f821691505b60208210811415611f8657634e487b7160e01b600052602260045260246000fd5b50919050565b600082611f9b57611f9b611fb6565b500690565b634e487b7160e01b600052601160045260246000fd5b634e487b7160e01b600052601260045260246000fd5b634e487b7160e01b600052603260045260246000fd5b634e487b7160e01b600052604160045260246000fd5b6001600160e01b0319811681146109c157600080fdfe3c73766720786d6c6e733d27687474703a2f2f7777772e77332e6f72672f323030302f73766727207072657365727665417370656374526174696f3d27784d696e594d696e206d656574272076696577426f783d273020302033353020333530273e3c7374796c653e2e62617365207b20666f6e742d73697a653a2031303070783b207d3c2f7374796c653e3c726563742077696474683d273130302527206865696768743d273130302527207374796c653d2766696c6c3a4142434445464748494a4b4c4d4e4f505152535455565758595a6162636465666768696a6b6c6d6e6f707172737475767778797a303132333435363738392b2f27202f3e3c7465787420783d273530252720793d273530252720636c6173733d27626173652720646f6d696e616e742d626173656c696e653d276d6964646c652720746578742d616e63686f723d276d6964646c65273ea2646970667358221220b8ae612731f557f73e325ea53b6c3ff182465fd76c2c31d3e047cd25bf954c1b64736f6c63430008070033",
  "devdoc": {
    "kind": "dev",
    "methods": {
      "approve(address,uint256)": {
        "details": "See {IERC721-approve}."
      },
      "balanceOf(address)": {
        "details": "See {IERC721-balanceOf}."
      },
      "getApproved(uint256)": {
        "details": "See {IERC721-getApproved}."
      },
      "isApprovedForAll(address,address)": {
        "details": "See {IERC721-isApprovedForAll}."
      },
      "name()": {
        "details": "See {IERC721Metadata-name}."
      },
      "ownerOf(uint256)": {
        "details": "See {IERC721-ownerOf}."
      },
      "safeTransferFrom(address,address,uint256)": {
        "details": "See {IERC721-safeTransferFrom}."
      },
      "safeTransferFrom(address,address,uint256,bytes)": {
        "details": "See {IERC721-safeTransferFrom}."
      },
      "setApprovalForAll(address,bool)": {
        "details": "See {IERC721-setApprovalForAll}."
      },
      "supportsInterface(bytes4)": {
        "details": "See {IERC165-supportsInterface}."
      },
      "symbol()": {
        "details": "See {IERC721Metadata-symbol}."
      },
      "tokenURI(uint256)": {
        "details": "See {IERC721Metadata-tokenURI}."
      },
      "transferFrom(address,address,uint256)": {
        "details": "See {IERC721-transferFrom}."
      }
    },
    "version": 1
  },
  "userdoc": {
    "kind": "user",
    "methods": {},
    "version": 1
  },
  "storageLayout": {
    "storage": [
      {
        "astId": 179,
        "contract": "contracts/EmojiNFT.sol:EmojiNFT",
        "label": "_name",
        "offset": 0,
        "slot": "0",
        "type": "t_string_storage"
      },
      {
        "astId": 181,
        "contract": "contracts/EmojiNFT.sol:EmojiNFT",
        "label": "_symbol",
        "offset": 0,
        "slot": "1",
        "type": "t_string_storage"
      },
      {
        "astId": 185,
        "contract": "contracts/EmojiNFT.sol:EmojiNFT",
        "label": "_owners",
        "offset": 0,
        "slot": "2",
        "type": "t_mapping(t_uint256,t_address)"
      },
      {
        "astId": 189,
        "contract": "contracts/EmojiNFT.sol:EmojiNFT",
        "label": "_balances",
        "offset": 0,
        "slot": "3",
        "type": "t_mapping(t_address,t_uint256)"
      },
      {
        "astId": 193,
        "contract": "contracts/EmojiNFT.sol:EmojiNFT",
        "label": "_tokenApprovals",
        "offset": 0,
        "slot": "4",
        "type": "t_mapping(t_uint256,t_address)"
      },
      {
        "astId": 199,
        "contract": "contracts/EmojiNFT.sol:EmojiNFT",
        "label": "_operatorApprovals",
        "offset": 0,
        "slot": "5",
        "type": "t_mapping(t_address,t_mapping(t_address,t_bool))"
      },
      {
        "astId": 1245,
        "contract": "contracts/EmojiNFT.sol:EmojiNFT",
        "label": "_tokenURIs",
        "offset": 0,
        "slot": "6",
        "type": "t_mapping(t_uint256,t_string_storage)"
      },
      {
        "astId": 2952,
        "contract": "contracts/EmojiNFT.sol:EmojiNFT",
        "label": "tokenIds",
        "offset": 0,
        "slot": "7",
        "type": "t_struct(Counter)1789_storage"
      },
      {
        "astId": 2966,
        "contract": "contracts/EmojiNFT.sol:EmojiNFT",
        "label": "emojis",
        "offset": 0,
        "slot": "8",
        "type": "t_array(t_string_storage)dyn_storage"
      },
      {
        "astId": 2983,
        "contract": "contracts/EmojiNFT.sol:EmojiNFT",
        "label": "requestToSender",
        "offset": 0,
        "slot": "9",
        "type": "t_mapping(t_uint256,t_address)"
      }
    ],
    "types": {
      "t_address": {
        "encoding": "inplace",
        "label": "address",
        "numberOfBytes": "20"
      },
      "t_array(t_string_storage)dyn_storage": {
        "base": "t_string_storage",
        "encoding": "dynamic_array",
        "label": "string[]",
        "numberOfBytes": "32"
      },
      "t_bool": {
        "encoding": "inplace",
        "label": "bool",
        "numberOfBytes": "1"
      },
      "t_mapping(t_address,t_bool)": {
        "encoding": "mapping",
        "key": "t_address",
        "label": "mapping(address => bool)",
        "numberOfBytes": "32",
        "value": "t_bool"
      },
      "t_mapping(t_address,t_mapping(t_address,t_bool))": {
        "encoding": "mapping",
        "key": "t_address",
        "label": "mapping(address => mapping(address => bool))",
        "numberOfBytes": "32",
        "value": "t_mapping(t_address,t_bool)"
      },
      "t_mapping(t_address,t_uint256)": {
        "encoding": "mapping",
        "key": "t_address",
        "label": "mapping(address => uint256)",
        "numberOfBytes": "32",
        "value": "t_uint256"
      },
      "t_mapping(t_uint256,t_address)": {
        "encoding": "mapping",
        "key": "t_uint256",
        "label": "mapping(uint256 => address)",
        "numberOfBytes": "32",
        "value": "t_address"
      },
      "t_mapping(t_uint256,t_string_storage)": {
        "encoding": "mapping",
        "key": "t_uint256",
        "label": "mapping(uint256 => string)",
        "numberOfBytes": "32",
        "value": "t_string_storage"
      },
      "t_string_storage": {
        "encoding": "bytes",
        "label": "string",
        "numberOfBytes": "32"
      },
      "t_struct(Counter)1789_storage": {
        "encoding": "inplace",
        "label": "struct Counters.Counter",
        "members": [
          {
            "astId": 1788,
            "contract": "contracts/EmojiNFT.sol:EmojiNFT",
            "label": "_value",
            "offset": 0,
            "slot": "0",
            "type": "t_uint256"
          }
        ],
        "numberOfBytes": "32"
      },
      "t_uint256": {
        "encoding": "inplace",
        "label": "uint256",
        "numberOfBytes": "32"
      }
    }
  }
}