{
  "address": "0x649060b6312318be13A04CF7A3c2Edc50A6Cc2c6",
  "abi": [
    {
      "inputs": [
        {
          "internalType": "address",
          "name": "vrfCoordinatorV2",
          "type": "address"
        },
        {
          "internalType": "uint64",
          "name": "subscriptionId",
          "type": "uint64"
        },
        {
          "internalType": "bytes32",
          "name": "gasLane",
          "type": "bytes32"
        },
        {
          "internalType": "uint32",
          "name": "callbackGasLimit",
          "type": "uint32"
        }
      ],
      "stateMutability": "nonpayable",
      "type": "constructor"
    },
    {
      "inputs": [
        {
          "internalType": "address",
          "name": "have",
          "type": "address"
        },
        {
          "internalType": "address",
          "name": "want",
          "type": "address"
        }
      ],
      "name": "OnlyCoordinatorCanFulfill",
      "type": "error"
    },
    {
      "anonymous": false,
      "inputs": [
        {
          "indexed": true,
          "internalType": "address",
          "name": "owner",
          "type": "address"
        },
        {
          "indexed": true,
          "internalType": "address",
          "name": "approved",
          "type": "address"
        },
        {
          "indexed": true,
          "internalType": "uint256",
          "name": "tokenId",
          "type": "uint256"
        }
      ],
      "name": "Approval",
      "type": "event"
    },
    {
      "anonymous": false,
      "inputs": [
        {
          "indexed": true,
          "internalType": "address",
          "name": "owner",
          "type": "address"
        },
        {
          "indexed": true,
          "internalType": "address",
          "name": "operator",
          "type": "address"
        },
        {
          "indexed": false,
          "internalType": "bool",
          "name": "approved",
          "type": "bool"
        }
      ],
      "name": "ApprovalForAll",
      "type": "event"
    },
    {
      "anonymous": false,
      "inputs": [
        {
          "indexed": true,
          "internalType": "uint256",
          "name": "requestId",
          "type": "uint256"
        }
      ],
      "name": "RandomnessRequested",
      "type": "event"
    },
    {
      "anonymous": false,
      "inputs": [
        {
          "indexed": true,
          "internalType": "address",
          "name": "from",
          "type": "address"
        },
        {
          "indexed": true,
          "internalType": "address",
          "name": "to",
          "type": "address"
        },
        {
          "indexed": true,
          "internalType": "uint256",
          "name": "tokenId",
          "type": "uint256"
        }
      ],
      "name": "Transfer",
      "type": "event"
    },
    {
      "inputs": [
        {
          "internalType": "address",
          "name": "to",
          "type": "address"
        },
        {
          "internalType": "uint256",
          "name": "tokenId",
          "type": "uint256"
        }
      ],
      "name": "approve",
      "outputs": [],
      "stateMutability": "nonpayable",
      "type": "function"
    },
    {
      "inputs": [
        {
          "internalType": "address",
          "name": "owner",
          "type": "address"
        }
      ],
      "name": "balanceOf",
      "outputs": [
        {
          "internalType": "uint256",
          "name": "",
          "type": "uint256"
        }
      ],
      "stateMutability": "view",
      "type": "function"
    },
    {
      "inputs": [
        {
          "internalType": "uint256",
          "name": "tokenId",
          "type": "uint256"
        }
      ],
      "name": "getApproved",
      "outputs": [
        {
          "internalType": "address",
          "name": "",
          "type": "address"
        }
      ],
      "stateMutability": "view",
      "type": "function"
    },
    {
      "inputs": [],
      "name": "getCurrentTokenId",
      "outputs": [
        {
          "internalType": "uint256",
          "name": "",
          "type": "uint256"
        }
      ],
      "stateMutability": "view",
      "type": "function"
    },
    {
      "inputs": [
        {
          "internalType": "uint256",
          "name": "requestId",
          "type": "uint256"
        }
      ],
      "name": "getRequestToSender",
      "outputs": [
        {
          "internalType": "address",
          "name": "",
          "type": "address"
        }
      ],
      "stateMutability": "view",
      "type": "function"
    },
    {
      "inputs": [
        {
          "internalType": "address",
          "name": "owner",
          "type": "address"
        },
        {
          "internalType": "address",
          "name": "operator",
          "type": "address"
        }
      ],
      "name": "isApprovedForAll",
      "outputs": [
        {
          "internalType": "bool",
          "name": "",
          "type": "bool"
        }
      ],
      "stateMutability": "view",
      "type": "function"
    },
    {
      "inputs": [],
      "name": "mint",
      "outputs": [
        {
          "internalType": "uint256",
          "name": "requestId",
          "type": "uint256"
        }
      ],
      "stateMutability": "nonpayable",
      "type": "function"
    },
    {
      "inputs": [],
      "name": "name",
      "outputs": [
        {
          "internalType": "string",
          "name": "",
          "type": "string"
        }
      ],
      "stateMutability": "view",
      "type": "function"
    },
    {
      "inputs": [
        {
          "internalType": "uint256",
          "name": "tokenId",
          "type": "uint256"
        }
      ],
      "name": "ownerOf",
      "outputs": [
        {
          "internalType": "address",
          "name": "",
          "type": "address"
        }
      ],
      "stateMutability": "view",
      "type": "function"
    },
    {
      "inputs": [
        {
          "internalType": "uint256",
          "name": "requestId",
          "type": "uint256"
        },
        {
          "internalType": "uint256[]",
          "name": "randomWords",
          "type": "uint256[]"
        }
      ],
      "name": "rawFulfillRandomWords",
      "outputs": [],
      "stateMutability": "nonpayable",
      "type": "function"
    },
    {
      "inputs": [
        {
          "internalType": "address",
          "name": "from",
          "type": "address"
        },
        {
          "internalType": "address",
          "name": "to",
          "type": "address"
        },
        {
          "internalType": "uint256",
          "name": "tokenId",
          "type": "uint256"
        }
      ],
      "name": "safeTransferFrom",
      "outputs": [],
      "stateMutability": "nonpayable",
      "type": "function"
    },
    {
      "inputs": [
        {
          "internalType": "address",
          "name": "from",
          "type": "address"
        },
        {
          "internalType": "address",
          "name": "to",
          "type": "address"
        },
        {
          "internalType": "uint256",
          "name": "tokenId",
          "type": "uint256"
        },
        {
          "internalType": "bytes",
          "name": "data",
          "type": "bytes"
        }
      ],
      "name": "safeTransferFrom",
      "outputs": [],
      "stateMutability": "nonpayable",
      "type": "function"
    },
    {
      "inputs": [
        {
          "internalType": "address",
          "name": "operator",
          "type": "address"
        },
        {
          "internalType": "bool",
          "name": "approved",
          "type": "bool"
        }
      ],
      "name": "setApprovalForAll",
      "outputs": [],
      "stateMutability": "nonpayable",
      "type": "function"
    },
    {
      "inputs": [
        {
          "internalType": "bytes4",
          "name": "interfaceId",
          "type": "bytes4"
        }
      ],
      "name": "supportsInterface",
      "outputs": [
        {
          "internalType": "bool",
          "name": "",
          "type": "bool"
        }
      ],
      "stateMutability": "view",
      "type": "function"
    },
    {
      "inputs": [],
      "name": "symbol",
      "outputs": [
        {
          "internalType": "string",
          "name": "",
          "type": "string"
        }
      ],
      "stateMutability": "view",
      "type": "function"
    },
    {
      "inputs": [
        {
          "internalType": "uint256",
          "name": "tokenId",
          "type": "uint256"
        }
      ],
      "name": "tokenURI",
      "outputs": [
        {
          "internalType": "string",
          "name": "",
          "type": "string"
        }
      ],
      "stateMutability": "view",
      "type": "function"
    },
    {
      "inputs": [
        {
          "internalType": "address",
          "name": "from",
          "type": "address"
        },
        {
          "internalType": "address",
          "name": "to",
          "type": "address"
        },
        {
          "internalType": "uint256",
          "name": "tokenId",
          "type": "uint256"
        }
      ],
      "name": "transferFrom",
      "outputs": [],
      "stateMutability": "nonpayable",
      "type": "function"
    }
  ],
  "transactionHash": "0xc8fcc5a20fcedb7c1112c01f78a22585f3a83409fbfa8c32cfef7a03184b5ba6",
  "args": [
    "0x7a1BaC17Ccc5b313516C5E16fb24f7659aA5ebed",
    "2700",
    "0x4b09e658ed251bcafeebbc69400383d49f344ace09b9576fe248bb02c003fe9f",
    "2500000"
  ],
  "numDeployments": 1,
  "solcInputHash": "3942c64b90815b68d94939837c85c51f",
  "bytecode": "0x6101206040523480156200001257600080fd5b50604051620023d7380380620023d7833981016040819052620000359162000188565b604080518082018252600981526814985b991bdb53919560ba1b60208083019182528351808501909452600384526252444d60e81b908401528151879391620000829160009190620000e2565b50805162000098906001906020840190620000e2565b505050606090811b6001600160601b031990811660805294901b90931660a05260c09081521b6001600160c01b03191660e09081521b6001600160e01b031916610100526200023f565b828054620000f09062000202565b90600052602060002090601f0160209004810192826200011457600085556200015f565b82601f106200012f57805160ff19168380011785556200015f565b828001600101855582156200015f579182015b828111156200015f57825182559160200191906001019062000142565b506200016d92915062000171565b5090565b5b808211156200016d576000815560010162000172565b600080600080608085870312156200019f57600080fd5b84516001600160a01b0381168114620001b757600080fd5b60208601519094506001600160401b0381168114620001d557600080fd5b60408601516060870151919450925063ffffffff81168114620001f757600080fd5b939692955090935050565b600181811c908216806200021757607f821691505b602082108114156200023957634e487b7160e01b600052602260045260246000fd5b50919050565b60805160601c60a05160601c60c05160e05160c01c6101005160e01c61214062000297600039600061054901526000610514015260006104e501526000610578015260008181610653015261069501526121406000f3fe608060405234801561001057600080fd5b506004361061010b5760003560e01c806356189236116100a257806395d89b411161007157806395d89b4114610233578063a22cb4651461023b578063b88d4fde1461024e578063c87b56dd14610261578063e985e9c51461027457600080fd5b806356189236146101dc5780636352211e146101e457806365a14cde146101f757806370a082311461022057600080fd5b80631249c58b116100de5780631249c58b1461018d5780631fe543e3146101a357806323b872dd146101b657806342842e0e146101c957600080fd5b806301ffc9a71461011057806306fdde0314610138578063081812fc1461014d578063095ea7b314610178575b600080fd5b61012361011e3660046118ca565b6102b0565b60405190151581526020015b60405180910390f35b610140610302565b60405161012f9190611c58565b61016061015b366004611904565b610394565b6040516001600160a01b03909116815260200161012f565b61018b6101863660046118a0565b6103bb565b005b6101956104d6565b60405190815260200161012f565b61018b6101b1366004611936565b610648565b61018b6101c4366004611768565b6106d0565b61018b6101d7366004611768565b610701565b61019561071c565b6101606101f2366004611904565b61072c565b610160610205366004611904565b6000908152600860205260409020546001600160a01b031690565b61019561022e36600461171a565b61078c565b610140610812565b61018b610249366004611864565b610821565b61018b61025c3660046117a4565b61082c565b61014061026f366004611904565b610864565b610123610282366004611735565b6001600160a01b03918216600090815260056020908152604080832093909416825291909152205460ff1690565b60006001600160e01b031982166380ac58cd60e01b14806102e157506001600160e01b03198216635b5e139f60e01b145b806102fc57506301ffc9a760e01b6001600160e01b03198316145b92915050565b60606000805461031190611e0e565b80601f016020809104026020016040519081016040528092919081815260200182805461033d90611e0e565b801561038a5780601f1061035f5761010080835404028352916020019161038a565b820191906000526020600020905b81548152906001019060200180831161036d57829003601f168201915b5050505050905090565b600061039f82610975565b506000908152600460205260409020546001600160a01b031690565b60006103c68261072c565b9050806001600160a01b0316836001600160a01b031614156104395760405162461bcd60e51b815260206004820152602160248201527f4552433732313a20617070726f76616c20746f2063757272656e74206f776e656044820152603960f91b60648201526084015b60405180910390fd5b336001600160a01b038216148061045557506104558133610282565b6104c75760405162461bcd60e51b815260206004820152603d60248201527f4552433732313a20617070726f76652063616c6c6572206973206e6f7420746f60448201527f6b656e206f776e6572206f7220617070726f76656420666f7220616c6c0000006064820152608401610430565b6104d183836109d7565b505050565b6040516305d3b1d360e41b81527f0000000000000000000000000000000000000000000000000000000000000000600482015267ffffffffffffffff7f000000000000000000000000000000000000000000000000000000000000000016602482015260036044820181905263ffffffff7f000000000000000000000000000000000000000000000000000000000000000016606483015260848201526000907f00000000000000000000000000000000000000000000000000000000000000006001600160a01b031690635d3b1d309060a401602060405180830381600087803b1580156105c457600080fd5b505af11580156105d8573d6000803e3d6000fd5b505050506040513d601f19601f820116820180604052508101906105fc919061191d565b60008181526008602052604080822080546001600160a01b031916331790555191925082917f9ac10fb18c93d33ad7b0a941897aef048d0f8d30756684e82b4552ba12764d459190a290565b336001600160a01b037f000000000000000000000000000000000000000000000000000000000000000016146106c25760405163073e64fd60e21b81523360048201526001600160a01b037f0000000000000000000000000000000000000000000000000000000000000000166024820152604401610430565b6106cc8282610a45565b5050565b6106da3382610b0c565b6106f65760405162461bcd60e51b815260040161043090611c6b565b6104d1838383610b8a565b6104d18383836040518060200160405280600081525061082c565b600061072760075490565b905090565b6000818152600260205260408120546001600160a01b0316806102fc5760405162461bcd60e51b8152602060048201526018602482015277115490cdcc8c4e881a5b9d985b1a59081d1bdad95b88125160421b6044820152606401610430565b60006001600160a01b0382166107f65760405162461bcd60e51b815260206004820152602960248201527f4552433732313a2061646472657373207a65726f206973206e6f7420612076616044820152683634b21037bbb732b960b91b6064820152608401610430565b506001600160a01b031660009081526003602052604090205490565b60606001805461031190611e0e565b6106cc338383610cfb565b6108363383610b0c565b6108525760405162461bcd60e51b815260040161043090611c6b565b61085e84848484610dca565b50505050565b606061086f82610975565b6000828152600660205260408120805461088890611e0e565b80601f01602080910402602001604051908101604052809291908181526020018280546108b490611e0e565b80156109015780601f106108d657610100808354040283529160200191610901565b820191906000526020600020905b8154815290600101906020018083116108e457829003601f168201915b50505050509050600061091f60408051602081019091526000815290565b9050805160001415610932575092915050565b81511561096457808260405160200161094c929190611a1b565b60405160208183030381529060405292505050919050565b61096d84610dfd565b949350505050565b6000818152600260205260409020546001600160a01b03166109d45760405162461bcd60e51b8152602060048201526018602482015277115490cdcc8c4e881a5b9d985b1a59081d1bdad95b88125160421b6044820152606401610430565b50565b600081815260046020526040902080546001600160a01b0319166001600160a01b0384169081179091558190610a0c8261072c565b6001600160a01b03167f8c5be1e5ebec7d5bd14f71427d1e84f3dd0314c0f7b2291e5b200ac8c7c3b92560405160405180910390a45050565b6000610a5060075490565b9050610a60600780546001019055565b6000610abb83600081518110610a7857610a78611e89565b602002602001015184600181518110610a9357610a93611e89565b602002602001015185600281518110610aae57610aae611e89565b6020026020010151610e71565b90506000610ac882610eeb565b90506000610ad582610f40565b600087815260086020526040902054909150610afa906001600160a01b031685610f87565b610b048482610fa1565b505050505050565b600080610b188361072c565b9050806001600160a01b0316846001600160a01b03161480610b5f57506001600160a01b0380821660009081526005602090815260408083209388168352929052205460ff165b8061096d5750836001600160a01b0316610b7884610394565b6001600160a01b031614949350505050565b826001600160a01b0316610b9d8261072c565b6001600160a01b031614610bc35760405162461bcd60e51b815260040161043090611d0a565b6001600160a01b038216610c255760405162461bcd60e51b8152602060048201526024808201527f4552433732313a207472616e7366657220746f20746865207a65726f206164646044820152637265737360e01b6064820152608401610430565b610c32838383600161103b565b826001600160a01b0316610c458261072c565b6001600160a01b031614610c6b5760405162461bcd60e51b815260040161043090611d0a565b600081815260046020908152604080832080546001600160a01b03199081169091556001600160a01b0387811680865260038552838620805460001901905590871680865283862080546001019055868652600290945282852080549092168417909155905184937fddf252ad1be2c89b69c2b068fc378daa952ba7f163c4a11628f55a4df523b3ef91a4505050565b816001600160a01b0316836001600160a01b03161415610d5d5760405162461bcd60e51b815260206004820152601960248201527f4552433732313a20617070726f766520746f2063616c6c6572000000000000006044820152606401610430565b6001600160a01b03838116600081815260056020908152604080832094871680845294825291829020805460ff191686151590811790915591519182527f17307eab39ab6107e8899845ad3d59bd9653f200f220920489ca2b5937696c31910160405180910390a3505050565b610dd5848484610b8a565b610de1848484846110c3565b61085e5760405162461bcd60e51b815260040161043090611cb8565b6060610e0882610975565b6000610e1f60408051602081019091526000815290565b90506000815111610e3f5760405180602001604052806000815250610e6a565b80610e49846111d0565b604051602001610e5a929190611a1b565b6040516020818303038152906040525b9392505050565b60606000610e8161010086611e49565b90506000610e9161010086611e49565b90506000610ea161010086611e49565b9050610eac836111d0565b610eb5836111d0565b610ebe836111d0565b604051602001610ed093929190611a8d565b60405160208183030381529060405293505050509392505050565b6060600060405180610120016040528060e58152602001611ecc60e591399050600060405180610140016040528061011a8152602001611fb161011a9139905081848260405160200161094c93929190611a4a565b60606000610f74610f508461126d565b604051602001610f609190611b4b565b60405160208183030381529060405261126d565b905080604051602001610e5a9190611b06565b6106cc8282604051806020016040528060008152506113c1565b6000828152600260205260409020546001600160a01b031661101c5760405162461bcd60e51b815260206004820152602e60248201527f45524337323155524953746f726167653a2055524920736574206f66206e6f6e60448201526d32bc34b9ba32b73a103a37b5b2b760911b6064820152608401610430565b600082815260066020908152604090912082516104d192840190611665565b600181111561085e576001600160a01b03841615611081576001600160a01b0384166000908152600360205260408120805483929061107b908490611dcb565b90915550505b6001600160a01b0383161561085e576001600160a01b038316600090815260036020526040812080548392906110b8908490611d80565b909155505050505050565b60006001600160a01b0384163b156111c557604051630a85bd0160e11b81526001600160a01b0385169063150b7a0290611107903390899088908890600401611c1c565b602060405180830381600087803b15801561112157600080fd5b505af1925050508015611151575060408051601f3d908101601f1916820190925261114e918101906118e7565b60015b6111ab573d80801561117f576040519150601f19603f3d011682016040523d82523d6000602084013e611184565b606091505b5080516111a35760405162461bcd60e51b815260040161043090611cb8565b805181602001fd5b6001600160e01b031916630a85bd0160e11b14905061096d565b506001949350505050565b606060006111dd836113f4565b600101905060008167ffffffffffffffff8111156111fd576111fd611e9f565b6040519080825280601f01601f191660200182016040528015611227576020820181803683370190505b5090508181016020015b600019016f181899199a1a9b1b9c1cb0b131b232b360811b600a86061a8153600a850494508461126057611265565b611231565b509392505050565b606081516000141561128d57505060408051602081019091526000815290565b60006040518060600160405280604081526020016120cb60409139905060006003845160026112bc9190611d80565b6112c69190611d98565b6112d1906004611dac565b67ffffffffffffffff8111156112e9576112e9611e9f565b6040519080825280601f01601f191660200182016040528015611313576020820181803683370190505b509050600182016020820185865187015b8082101561137f576003820191508151603f8160121c168501518453600184019350603f81600c1c168501518453600184019350603f8160061c168501518453600184019350603f8116850151845350600183019250611324565b505060038651066001811461139b57600281146113ae576113b6565b603d6001830353603d60028303536113b6565b603d60018303535b509195945050505050565b6113cb83836114cc565b6113d860008484846110c3565b6104d15760405162461bcd60e51b815260040161043090611cb8565b60008072184f03e93ff9f4daa797ed6e38ed64bf6a1f0160401b83106114335772184f03e93ff9f4daa797ed6e38ed64bf6a1f0160401b830492506040015b6d04ee2d6d415b85acef8100000000831061145f576d04ee2d6d415b85acef8100000000830492506020015b662386f26fc10000831061147d57662386f26fc10000830492506010015b6305f5e1008310611495576305f5e100830492506008015b61271083106114a957612710830492506004015b606483106114bb576064830492506002015b600a83106102fc5760010192915050565b6001600160a01b0382166115225760405162461bcd60e51b815260206004820181905260248201527f4552433732313a206d696e7420746f20746865207a65726f20616464726573736044820152606401610430565b6000818152600260205260409020546001600160a01b0316156115875760405162461bcd60e51b815260206004820152601c60248201527f4552433732313a20746f6b656e20616c7265616479206d696e746564000000006044820152606401610430565b61159560008383600161103b565b6000818152600260205260409020546001600160a01b0316156115fa5760405162461bcd60e51b815260206004820152601c60248201527f4552433732313a20746f6b656e20616c7265616479206d696e746564000000006044820152606401610430565b6001600160a01b038216600081815260036020908152604080832080546001019055848352600290915280822080546001600160a01b0319168417905551839291907fddf252ad1be2c89b69c2b068fc378daa952ba7f163c4a11628f55a4df523b3ef908290a45050565b82805461167190611e0e565b90600052602060002090601f01602090048101928261169357600085556116d9565b82601f106116ac57805160ff19168380011785556116d9565b828001600101855582156116d9579182015b828111156116d95782518255916020019190600101906116be565b506116e59291506116e9565b5090565b5b808211156116e557600081556001016116ea565b80356001600160a01b038116811461171557600080fd5b919050565b60006020828403121561172c57600080fd5b610e6a826116fe565b6000806040838503121561174857600080fd5b611751836116fe565b915061175f602084016116fe565b90509250929050565b60008060006060848603121561177d57600080fd5b611786846116fe565b9250611794602085016116fe565b9150604084013590509250925092565b600080600080608085870312156117ba57600080fd5b6117c3856116fe565b935060206117d28187016116fe565b935060408601359250606086013567ffffffffffffffff808211156117f657600080fd5b818801915088601f83011261180a57600080fd5b81358181111561181c5761181c611e9f565b61182e601f8201601f19168501611d4f565b9150808252898482850101111561184457600080fd5b808484018584013760008482840101525080935050505092959194509250565b6000806040838503121561187757600080fd5b611880836116fe565b91506020830135801515811461189557600080fd5b809150509250929050565b600080604083850312156118b357600080fd5b6118bc836116fe565b946020939093013593505050565b6000602082840312156118dc57600080fd5b8135610e6a81611eb5565b6000602082840312156118f957600080fd5b8151610e6a81611eb5565b60006020828403121561191657600080fd5b5035919050565b60006020828403121561192f57600080fd5b5051919050565b6000806040838503121561194957600080fd5b8235915060208084013567ffffffffffffffff8082111561196957600080fd5b818601915086601f83011261197d57600080fd5b81358181111561198f5761198f611e9f565b8060051b91506119a0848301611d4f565b8181528481019084860184860187018b10156119bb57600080fd5b600095505b838610156119de5780358352600195909501949186019186016119c0565b508096505050505050509250929050565b60008151808452611a07816020860160208601611de2565b601f01601f19169290920160200192915050565b60008351611a2d818460208801611de2565b835190830190611a41818360208801611de2565b01949350505050565b60008451611a5c818460208901611de2565b845190830190611a70818360208901611de2565b8451910190611a83818360208801611de2565b0195945050505050565b630e4cec4560e31b815260008451611aac816004850160208901611de2565b808301905061016160f51b8060048301528551611ad0816006850160208a01611de2565b60069201918201528351611aeb816008840160208801611de2565b602960f81b6008929091019182015260090195945050505050565b7f646174613a6170706c69636174696f6e2f6a736f6e3b6261736536342c000000815260008251611b3e81601d850160208701611de2565b91909101601d0192915050565b7f7b226e616d65223a202252616e646f6d4e4654222c000000000000000000000081527f226465736372697074696f6e223a202252616e646f6d204e465420436f6c6c6560158201527f6374696f6e20506f776572656420627920436861696e6c696e6b20565246222c60358201527f2022696d616765223a2022646174613a696d6167652f7376672b786d6c3b62616055820152641cd94d8d0b60da1b607582015260008251611c0381607a850160208701611de2565b61227d60f01b607a939091019283015250607c01919050565b60006001600160a01b03808716835280861660208401525083604083015260806060830152611c4e60808301846119ef565b9695505050505050565b602081526000610e6a60208301846119ef565b6020808252602d908201527f4552433732313a2063616c6c6572206973206e6f7420746f6b656e206f776e6560408201526c1c881bdc88185c1c1c9bdd9959609a1b606082015260800190565b60208082526032908201527f4552433732313a207472616e7366657220746f206e6f6e20455243373231526560408201527131b2b4bb32b91034b6b83632b6b2b73a32b960711b606082015260800190565b60208082526025908201527f4552433732313a207472616e736665722066726f6d20696e636f72726563742060408201526437bbb732b960d91b606082015260800190565b604051601f8201601f1916810167ffffffffffffffff81118282101715611d7857611d78611e9f565b604052919050565b60008219821115611d9357611d93611e5d565b500190565b600082611da757611da7611e73565b500490565b6000816000190483118215151615611dc657611dc6611e5d565b500290565b600082821015611ddd57611ddd611e5d565b500390565b60005b83811015611dfd578181015183820152602001611de5565b8381111561085e5750506000910152565b600181811c90821680611e2257607f821691505b60208210811415611e4357634e487b7160e01b600052602260045260246000fd5b50919050565b600082611e5857611e58611e73565b500690565b634e487b7160e01b600052601160045260246000fd5b634e487b7160e01b600052601260045260246000fd5b634e487b7160e01b600052603260045260246000fd5b634e487b7160e01b600052604160045260246000fd5b6001600160e01b0319811681146109d457600080fdfe3c73766720786d6c6e733d27687474703a2f2f7777772e77332e6f72672f323030302f737667272077696474683d2731353027206865696768743d27313639273e3c7061746820643d274d34362e383735203136384831382e3735762d31382e3636384830762d31382e3636346831382e3735563131326833372e355639332e3333324837355637342e3636386831382e37355633372e3333326831382e373556306831382e37357633372e33333248313530763536682d31382e37357633372e333336483131322e357631382e363634483735563136387a6d302030272066696c6c3d27272f3e3c7061746820643d274d34362e383735203136384831382e3735762d31382e3636384830762d31382e3636346831382e3735563131326833372e355639332e3333324837355637342e3636386831382e37355633372e3333326831382e373556306831382e37357633372e33333248313530763536682d31382e37357633372e333336483131322e357631382e363634483735563136387a6d302d31382e363638483735762d31382e3636346833372e355639332e3333326831382e3735762d3536483131322e357633372e3333364839332e37357631382e363634483735563131324835362e32357631382e363638682d33372e357631382e3636347a6d302030272066696c6c3d2723303030272f3e3c2f7376673e4142434445464748494a4b4c4d4e4f505152535455565758595a6162636465666768696a6b6c6d6e6f707172737475767778797a303132333435363738392b2fa26469706673582212208127d39a89d2dab039b03a8cd0a3891236b2bc9235bb4767dabc0b39a0a9b0af64736f6c63430008070033",
  "devdoc": {
    "kind": "dev",
    "methods": {
      "approve(address,uint256)": {
        "details": "See {IERC721-approve}."
      },
      "balanceOf(address)": {
        "details": "See {IERC721-balanceOf}."
      },
      "getApproved(uint256)": {
        "details": "See {IERC721-getApproved}."
      },
      "isApprovedForAll(address,address)": {
        "details": "See {IERC721-isApprovedForAll}."
      },
      "name()": {
        "details": "See {IERC721Metadata-name}."
      },
      "ownerOf(uint256)": {
        "details": "See {IERC721-ownerOf}."
      },
      "safeTransferFrom(address,address,uint256)": {
        "details": "See {IERC721-safeTransferFrom}."
      },
      "safeTransferFrom(address,address,uint256,bytes)": {
        "details": "See {IERC721-safeTransferFrom}."
      },
      "setApprovalForAll(address,bool)": {
        "details": "See {IERC721-setApprovalForAll}."
      },
      "supportsInterface(bytes4)": {
        "details": "See {IERC165-supportsInterface}."
      },
      "symbol()": {
        "details": "See {IERC721Metadata-symbol}."
      },
      "tokenURI(uint256)": {
        "details": "See {IERC721Metadata-tokenURI}."
      },
      "transferFrom(address,address,uint256)": {
        "details": "See {IERC721-transferFrom}."
      }
    },
    "version": 1
  },
  "userdoc": {
    "kind": "user",
    "methods": {},
    "version": 1
  },
  "storageLayout": {
    "storage": [
      {
        "astId": 179,
        "contract": "contracts/RandomNFT.sol:RandomNFT",
        "label": "_name",
        "offset": 0,
        "slot": "0",
        "type": "t_string_storage"
      },
      {
        "astId": 181,
        "contract": "contracts/RandomNFT.sol:RandomNFT",
        "label": "_symbol",
        "offset": 0,
        "slot": "1",
        "type": "t_string_storage"
      },
      {
        "astId": 185,
        "contract": "contracts/RandomNFT.sol:RandomNFT",
        "label": "_owners",
        "offset": 0,
        "slot": "2",
        "type": "t_mapping(t_uint256,t_address)"
      },
      {
        "astId": 189,
        "contract": "contracts/RandomNFT.sol:RandomNFT",
        "label": "_balances",
        "offset": 0,
        "slot": "3",
        "type": "t_mapping(t_address,t_uint256)"
      },
      {
        "astId": 193,
        "contract": "contracts/RandomNFT.sol:RandomNFT",
        "label": "_tokenApprovals",
        "offset": 0,
        "slot": "4",
        "type": "t_mapping(t_uint256,t_address)"
      },
      {
        "astId": 199,
        "contract": "contracts/RandomNFT.sol:RandomNFT",
        "label": "_operatorApprovals",
        "offset": 0,
        "slot": "5",
        "type": "t_mapping(t_address,t_mapping(t_address,t_bool))"
      },
      {
        "astId": 1245,
        "contract": "contracts/RandomNFT.sol:RandomNFT",
        "label": "_tokenURIs",
        "offset": 0,
        "slot": "6",
        "type": "t_mapping(t_uint256,t_string_storage)"
      },
      {
        "astId": 2952,
        "contract": "contracts/RandomNFT.sol:RandomNFT",
        "label": "tokenIds",
        "offset": 0,
        "slot": "7",
        "type": "t_struct(Counter)1789_storage"
      },
      {
        "astId": 2971,
        "contract": "contracts/RandomNFT.sol:RandomNFT",
        "label": "requestToSender",
        "offset": 0,
        "slot": "8",
        "type": "t_mapping(t_uint256,t_address)"
      }
    ],
    "types": {
      "t_address": {
        "encoding": "inplace",
        "label": "address",
        "numberOfBytes": "20"
      },
      "t_bool": {
        "encoding": "inplace",
        "label": "bool",
        "numberOfBytes": "1"
      },
      "t_mapping(t_address,t_bool)": {
        "encoding": "mapping",
        "key": "t_address",
        "label": "mapping(address => bool)",
        "numberOfBytes": "32",
        "value": "t_bool"
      },
      "t_mapping(t_address,t_mapping(t_address,t_bool))": {
        "encoding": "mapping",
        "key": "t_address",
        "label": "mapping(address => mapping(address => bool))",
        "numberOfBytes": "32",
        "value": "t_mapping(t_address,t_bool)"
      },
      "t_mapping(t_address,t_uint256)": {
        "encoding": "mapping",
        "key": "t_address",
        "label": "mapping(address => uint256)",
        "numberOfBytes": "32",
        "value": "t_uint256"
      },
      "t_mapping(t_uint256,t_address)": {
        "encoding": "mapping",
        "key": "t_uint256",
        "label": "mapping(uint256 => address)",
        "numberOfBytes": "32",
        "value": "t_address"
      },
      "t_mapping(t_uint256,t_string_storage)": {
        "encoding": "mapping",
        "key": "t_uint256",
        "label": "mapping(uint256 => string)",
        "numberOfBytes": "32",
        "value": "t_string_storage"
      },
      "t_string_storage": {
        "encoding": "bytes",
        "label": "string",
        "numberOfBytes": "32"
      },
      "t_struct(Counter)1789_storage": {
        "encoding": "inplace",
        "label": "struct Counters.Counter",
        "members": [
          {
            "astId": 1788,
            "contract": "contracts/RandomNFT.sol:RandomNFT",
            "label": "_value",
            "offset": 0,
            "slot": "0",
            "type": "t_uint256"
          }
        ],
        "numberOfBytes": "32"
      },
      "t_uint256": {
        "encoding": "inplace",
        "label": "uint256",
        "numberOfBytes": "32"
      }
    }
  }
}